8=FIX.4.4|9=97|35=A|34=1|49=QUICKFIX_INITIATOR1|52=20230406-08:35:20.718|56=QUICKFIX_ACCEPTOR|98=0|108=30|141=Y|10=241|
8=FIX.4.4|9=97|35=A|34=1|49=QUICKFIX_ACCEPTOR|52=20230406-08:35:20.761|56=QUICKFIX_INITIATOR1|98=0|108=30|141=Y|10=239|
8=FIX.4.4|9=79|35=0|34=2|49=QUICKFIX_INITIATOR1|52=20230406-08:35:50.710|56=QUICKFIX_ACCEPTOR|10=150|
8=FIX.4.4|9=79|35=0|34=2|49=QUICKFIX_ACCEPTOR|52=20230406-08:35:51.232|56=QUICKFIX_INITIATOR1|10=150|
8=FIX.4.4|9=79|35=0|34=3|49=QUICKFIX_INITIATOR1|52=20230406-08:36:20.709|56=QUICKFIX_ACCEPTOR|10=157|
8=FIX.4.4|9=79|35=0|34=3|49=QUICKFIX_ACCEPTOR|52=20230406-08:36:21.232|56=QUICKFIX_INITIATOR1|10=149|
8=FIX.4.4|9=79|35=0|34=4|49=QUICKFIX_INITIATOR1|52=20230406-08:36:50.709|56=QUICKFIX_ACCEPTOR|10=161|
8=FIX.4.4|9=79|35=0|34=4|49=QUICKFIX_ACCEPTOR|52=20230406-08:36:51.228|56=QUICKFIX_INITIATOR1|10=158|
8=FIX.4.4|9=79|35=0|34=5|49=QUICKFIX_INITIATOR1|52=20230406-08:37:20.712|56=QUICKFIX_ACCEPTOR|10=154|
8=FIX.4.4|9=79|35=0|34=5|49=QUICKFIX_ACCEPTOR|52=20230406-08:37:21.232|56=QUICKFIX_INITIATOR1|10=152|
8=FIX.4.4|9=97|35=A|34=1|49=QUICKFIX_INITIATOR1|52=20230413-08:48:32.095|56=QUICKFIX_ACCEPTOR|98=0|108=30|141=Y|10=244|
8=FIX.4.4|9=97|35=A|34=1|49=QUICKFIX_ACCEPTOR|52=20230413-08:48:32.149|56=QUICKFIX_INITIATOR1|98=0|108=30|141=Y|10=244|
8=FIX.4.4|9=79|35=0|34=2|49=QUICKFIX_INITIATOR1|52=20230413-08:49:02.087|56=QUICKFIX_ACCEPTOR|10=157|
8=FIX.4.4|9=79|35=0|34=2|49=QUICKFIX_ACCEPTOR|52=20230413-08:49:02.673|56=QUICKFIX_INITIATOR1|10=158|
8=FIX.4.4|9=79|35=0|34=3|49=QUICKFIX_INITIATOR1|52=20230413-08:49:32.091|56=QUICKFIX_ACCEPTOR|10=156|
8=FIX.4.4|9=79|35=0|34=3|49=QUICKFIX_ACCEPTOR|52=20230413-08:49:32.672|56=QUICKFIX_INITIATOR1|10=161|
8=FIX.4.4|9=79|35=0|34=4|49=QUICKFIX_INITIATOR1|52=20230413-08:50:02.090|56=QUICKFIX_ACCEPTOR|10=145|
8=FIX.4.4|9=79|35=0|34=4|49=QUICKFIX_ACCEPTOR|52=20230413-08:50:02.671|56=QUICKFIX_INITIATOR1|10=150|
8=FIX.4.4|9=79|35=0|34=5|49=QUICKFIX_INITIATOR1|52=20230413-08:50:32.088|56=QUICKFIX_ACCEPTOR|10=156|
8=FIX.4.4|9=79|35=0|34=5|49=QUICKFIX_ACCEPTOR|52=20230413-08:50:32.673|56=QUICKFIX_INITIATOR1|10=156|
8=FIX.4.4|9=79|35=0|34=6|49=QUICKFIX_INITIATOR1|52=20230413-08:51:02.094|56=QUICKFIX_ACCEPTOR|10=152|
8=FIX.4.4|9=79|35=0|34=6|49=QUICKFIX_ACCEPTOR|52=20230413-08:51:02.672|56=QUICKFIX_INITIATOR1|10=154|
8=FIX.4.4|9=79|35=0|34=7|49=QUICKFIX_INITIATOR1|52=20230413-08:51:32.093|56=QUICKFIX_ACCEPTOR|10=155|
8=FIX.4.4|9=79|35=0|34=7|49=QUICKFIX_ACCEPTOR|52=20230413-08:51:32.677|56=QUICKFIX_INITIATOR1|10=163|
8=FIX.4.4|9=79|35=0|34=8|49=QUICKFIX_INITIATOR1|52=20230413-08:52:02.090|56=QUICKFIX_ACCEPTOR|10=151|
8=FIX.4.4|9=79|35=0|34=8|49=QUICKFIX_ACCEPTOR|52=20230413-08:52:02.674|56=QUICKFIX_INITIATOR1|10=159|
8=FIX.4.4|9=79|35=0|34=9|49=QUICKFIX_INITIATOR1|52=20230413-08:52:32.089|56=QUICKFIX_ACCEPTOR|10=163|
8=FIX.4.4|9=79|35=0|34=9|49=QUICKFIX_ACCEPTOR|52=20230413-08:52:32.674|56=QUICKFIX_INITIATOR1|10=163|
8=FIX.4.4|9=80|35=0|34=10|49=QUICKFIX_INITIATOR1|52=20230413-08:53:02.093|56=QUICKFIX_ACCEPTOR|10=188|
8=FIX.4.4|9=80|35=0|34=10|49=QUICKFIX_ACCEPTOR|52=20230413-08:53:02.677|56=QUICKFIX_INITIATOR1|10=196|
8=FIX.4.4|9=80|35=0|34=11|49=QUICKFIX_INITIATOR1|52=20230413-08:53:32.090|56=QUICKFIX_ACCEPTOR|10=189|
8=FIX.4.4|9=80|35=0|34=11|49=QUICKFIX_ACCEPTOR|52=20230413-08:53:32.672|56=QUICKFIX_INITIATOR1|10=195|
8=FIX.4.4|9=80|35=0|34=12|49=QUICKFIX_INITIATOR1|52=20230413-08:54:02.092|56=QUICKFIX_ACCEPTOR|10=190|
8=FIX.4.4|9=80|35=0|34=12|49=QUICKFIX_ACCEPTOR|52=20230413-08:54:02.674|56=QUICKFIX_INITIATOR1|10=196|
8=FIX.4.4|9=80|35=0|34=13|49=QUICKFIX_INITIATOR1|52=20230413-08:54:32.093|56=QUICKFIX_ACCEPTOR|10=195|
8=FIX.4.4|9=80|35=0|34=13|49=QUICKFIX_ACCEPTOR|52=20230413-08:54:32.674|56=QUICKFIX_INITIATOR1|10=200|
8=FIX.4.4|9=80|35=0|34=14|49=QUICKFIX_INITIATOR1|52=20230413-08:55:02.091|56=QUICKFIX_ACCEPTOR|10=192|
8=FIX.4.4|9=80|35=0|34=14|49=QUICKFIX_ACCEPTOR|52=20230413-08:55:02.672|56=QUICKFIX_INITIATOR1|10=197|
8=FIX.4.4|9=80|35=0|34=15|49=QUICKFIX_INITIATOR1|52=20230413-08:55:32.095|56=QUICKFIX_ACCEPTOR|10=200|
8=FIX.4.4|9=80|35=0|34=15|49=QUICKFIX_ACCEPTOR|52=20230413-08:55:32.675|56=QUICKFIX_INITIATOR1|10=204|
8=FIX.4.4|9=80|35=0|34=16|49=QUICKFIX_INITIATOR1|52=20230413-08:56:02.091|56=QUICKFIX_ACCEPTOR|10=195|
8=FIX.4.4|9=80|35=0|34=16|49=QUICKFIX_ACCEPTOR|52=20230413-08:56:02.673|56=QUICKFIX_INITIATOR1|10=201|
8=FIX.4.4|9=97|35=A|34=1|49=QUICKFIX_INITIATOR1|52=20230413-09:30:27.185|56=QUICKFIX_ACCEPTOR|98=0|108=30|141=Y|10=240|
8=FIX.4.4|9=97|35=A|34=1|49=QUICKFIX_ACCEPTOR|52=20230413-09:30:27.282|56=QUICKFIX_INITIATOR1|98=0|108=30|141=Y|10=238|
8=FIX.4.4|9=158|35=D|34=2|49=QUICKFIX_INITIATOR1|52=20230413-09:30:31.611|56=QUICKFIX_ACCEPTOR|1=mockedAccount|11=mockedClOrdID|21=1|38=45|40=2|44=25.88|54=1|55=mockedSymbol|10=192|
8=FIX.4.4|9=133|35=8|34=2|49=QUICKFIX_ACCEPTOR|52=20230413-09:30:31.659|56=QUICKFIX_INITIATOR1|11=mockedClOrdID|17=mockedExecID|54=1|55=mockedSymbol|10=210|
8=FIX.4.4|9=79|35=0|34=3|49=QUICKFIX_ACCEPTOR|52=20230413-09:31:01.979|56=QUICKFIX_INITIATOR1|10=159|
8=FIX.4.4|9=79|35=0|34=3|49=QUICKFIX_INITIATOR1|52=20230413-09:31:01.982|56=QUICKFIX_ACCEPTOR|10=153|
8=FIX.4.4|9=79|35=0|34=4|49=QUICKFIX_ACCEPTOR|52=20230413-09:31:31.980|56=QUICKFIX_INITIATOR1|10=155|
8=FIX.4.4|9=79|35=0|34=4|49=QUICKFIX_INITIATOR1|52=20230413-09:31:31.985|56=QUICKFIX_ACCEPTOR|10=160|
8=FIX.4.4|9=79|35=0|34=5|49=QUICKFIX_ACCEPTOR|52=20230413-09:32:01.983|56=QUICKFIX_INITIATOR1|10=157|
8=FIX.4.4|9=79|35=0|34=5|49=QUICKFIX_INITIATOR1|52=20230413-09:32:01.987|56=QUICKFIX_ACCEPTOR|10=161|
8=FIX.4.4|9=79|35=0|34=6|49=QUICKFIX_ACCEPTOR|52=20230413-09:32:31.982|56=QUICKFIX_INITIATOR1|10=160|
8=FIX.4.4|9=79|35=0|34=6|49=QUICKFIX_INITIATOR1|52=20230413-09:32:31.986|56=QUICKFIX_ACCEPTOR|10=164|
8=FIX.4.4|9=79|35=0|34=7|49=QUICKFIX_ACCEPTOR|52=20230413-09:33:01.983|56=QUICKFIX_INITIATOR1|10=160|
8=FIX.4.4|9=79|35=0|34=7|49=QUICKFIX_INITIATOR1|52=20230413-09:33:01.989|56=QUICKFIX_ACCEPTOR|10=166|
8=FIX.4.4|9=97|35=A|34=1|49=QUICKFIX_INITIATOR1|52=20230526-08:17:00.788|56=QUICKFIX_ACCEPTOR|98=0|108=30|141=Y|10=249|
8=FIX.4.4|9=97|35=A|34=1|49=QUICKFIX_ACCEPTOR|52=20230526-08:16:59.742|56=QUICKFIX_INITIATOR1|98=0|108=30|141=Y|10=252|
8=FIX.4.4|9=79|35=0|34=2|49=QUICKFIX_ACCEPTOR|52=20230526-08:17:30.554|56=QUICKFIX_INITIATOR1|10=157|
8=FIX.4.4|9=79|35=0|34=2|49=QUICKFIX_INITIATOR1|52=20230526-08:17:31.778|56=QUICKFIX_ACCEPTOR|10=166|
8=FIX.4.4|9=79|35=0|34=3|49=QUICKFIX_ACCEPTOR|52=20230526-08:18:00.552|56=QUICKFIX_INITIATOR1|10=154|
8=FIX.4.4|9=79|35=0|34=3|49=QUICKFIX_INITIATOR1|52=20230526-08:18:01.775|56=QUICKFIX_ACCEPTOR|10=162|
8=FIX.4.4|9=79|35=0|34=4|49=QUICKFIX_ACCEPTOR|52=20230526-08:18:30.553|56=QUICKFIX_INITIATOR1|10=159|
8=FIX.4.4|9=79|35=0|34=4|49=QUICKFIX_INITIATOR1|52=20230526-08:18:31.772|56=QUICKFIX_ACCEPTOR|10=163|
8=FIX.4.4|9=97|35=A|34=1|49=QUICKFIX_INITIATOR1|52=20230526-08:20:56.460|56=QUICKFIX_ACCEPTOR|98=0|108=30|141=Y|10=241|
8=FIX.4.4|9=97|35=A|34=1|49=QUICKFIX_ACCEPTOR|52=20230526-08:20:55.364|56=QUICKFIX_INITIATOR1|98=0|108=30|141=Y|10=243|
8=FIX.4.4|9=158|35=D|34=2|49=QUICKFIX_INITIATOR1|52=20230526-08:21:00.545|56=QUICKFIX_ACCEPTOR|1=mockedAccount|11=mockedClOrdID|21=1|38=45|40=2|44=25.88|54=1|55=mockedSymbol|10=198|
8=FIX.4.4|9=133|35=8|34=2|49=QUICKFIX_ACCEPTOR|52=20230526-08:20:59.690|56=QUICKFIX_INITIATOR1|11=mockedClOrdID|17=mockedExecID|54=1|55=mockedSymbol|10=218|
8=FIX.4.4|9=79|35=0|34=3|49=QUICKFIX_ACCEPTOR|52=20230526-08:21:30.155|56=QUICKFIX_INITIATOR1|10=150|
8=FIX.4.4|9=79|35=0|34=3|49=QUICKFIX_INITIATOR1|52=20230526-08:21:31.378|56=QUICKFIX_ACCEPTOR|10=158|
8=FIX.4.4|9=79|35=0|34=4|49=QUICKFIX_ACCEPTOR|52=20230526-08:22:00.156|56=QUICKFIX_INITIATOR1|10=150|
8=FIX.4.4|9=79|35=0|34=4|49=QUICKFIX_INITIATOR1|52=20230526-08:22:01.377|56=QUICKFIX_ACCEPTOR|10=156|
8=FIX.4.4|9=97|35=A|34=1|49=QUICKFIX_INITIATOR1|52=20230526-08:34:00.430|56=QUICKFIX_ACCEPTOR|98=0|108=30|141=Y|10=232|
8=FIX.4.4|9=97|35=A|34=1|49=QUICKFIX_ACCEPTOR|52=20230526-08:33:59.269|56=QUICKFIX_INITIATOR1|98=0|108=30|141=Y|10=255|
8=FIX.4.4|9=79|35=0|34=2|49=QUICKFIX_ACCEPTOR|52=20230526-08:34:29.986|56=QUICKFIX_INITIATOR1|10=173|
8=FIX.4.4|9=79|35=0|34=2|49=QUICKFIX_INITIATOR1|52=20230526-08:34:31.225|56=QUICKFIX_ACCEPTOR|10=152|
8=FIX.4.4|9=79|35=0|34=3|49=QUICKFIX_ACCEPTOR|52=20230526-08:34:59.984|56=QUICKFIX_INITIATOR1|10=175|
8=FIX.4.4|9=79|35=0|34=3|49=QUICKFIX_INITIATOR1|52=20230526-08:35:01.422|56=QUICKFIX_ACCEPTOR|10=150|
8=FIX.4.4|9=97|35=A|34=1|49=QUICKFIX_INITIATOR1|52=20230526-08:45:55.541|56=QUICKFIX_ACCEPTOR|98=0|108=30|141=Y|10=247|
8=FIX.4.4|9=97|35=A|34=1|49=QUICKFIX_ACCEPTOR|52=20230526-08:45:54.425|56=QUICKFIX_INITIATOR1|98=0|108=30|141=Y|10=247|
8=FIX.4.4|9=158|35=D|34=2|49=QUICKFIX_INITIATOR1|52=20230526-08:45:59.633|56=QUICKFIX_ACCEPTOR|1=mockedAccount|11=mockedClOrdID|21=1|38=45|40=2|44=25.88|54=1|55=mockedSymbol|10=216|
8=FIX.4.4|9=133|35=8|34=2|49=QUICKFIX_ACCEPTOR|52=20230526-08:45:58.461|56=QUICKFIX_INITIATOR1|11=mockedClOrdID|17=mockedExecID|54=1|55=mockedSymbol|10=220|
8=FIX.4.4|9=79|35=0|34=3|49=QUICKFIX_ACCEPTOR|52=20230526-08:46:29.310|56=QUICKFIX_INITIATOR1|10=158|
8=FIX.4.4|9=79|35=0|34=3|49=QUICKFIX_INITIATOR1|52=20230526-08:46:30.531|56=QUICKFIX_ACCEPTOR|10=155|
8=FIX.4.4|9=79|35=0|34=4|49=QUICKFIX_INITIATOR1|52=20230526-08:47:00.530|56=QUICKFIX_ACCEPTOR|10=153|
8=FIX.4.4|9=79|35=0|34=4|49=QUICKFIX_ACCEPTOR|52=20230526-08:46:59.923|56=QUICKFIX_INITIATOR1|10=172|
