8=FIX.4.4|9=97|35=A|34=1|49=QUICKFIX_INITIATOR2|52=20230406-08:35:20.725|56=QUICKFIX_ACCEPTOR|98=0|108=30|141=Y|10=240|
8=FIX.4.4|9=97|35=A|34=1|49=QUICKFIX_ACCEPTOR|52=20230406-08:35:20.761|56=QUICKFIX_INITIATOR2|98=0|108=30|141=Y|10=240|
8=FIX.4.4|9=79|35=0|34=2|49=QUICKFIX_ACCEPTOR|52=20230406-08:35:51.233|56=QUICKFIX_INITIATOR2|10=152|
8=FIX.4.4|9=79|35=0|34=2|49=QUICKFIX_INITIATOR2|52=20230406-08:35:51.236|56=QUICKFIX_ACCEPTOR|10=155|
8=FIX.4.4|9=79|35=0|34=3|49=QUICKFIX_ACCEPTOR|52=20230406-08:36:21.234|56=QUICKFIX_INITIATOR2|10=152|
8=FIX.4.4|9=79|35=0|34=3|49=QUICKFIX_INITIATOR2|52=20230406-08:36:21.236|56=QUICKFIX_ACCEPTOR|10=154|
8=FIX.4.4|9=79|35=0|34=4|49=QUICKFIX_ACCEPTOR|52=20230406-08:36:51.238|56=QUICKFIX_INITIATOR2|10=160|
8=FIX.4.4|9=79|35=0|34=4|49=QUICKFIX_INITIATOR2|52=20230406-08:36:51.242|56=QUICKFIX_ACCEPTOR|10=155|
8=FIX.4.4|9=79|35=0|34=5|49=QUICKFIX_ACCEPTOR|52=20230406-08:37:21.243|56=QUICKFIX_INITIATOR2|10=155|
8=FIX.4.4|9=79|35=0|34=5|49=QUICKFIX_INITIATOR2|52=20230406-08:37:21.246|56=QUICKFIX_ACCEPTOR|10=158|
8=FIX.4.4|9=97|35=A|34=1|49=QUICKFIX_INITIATOR2|52=20230413-08:48:32.101|56=QUICKFIX_ACCEPTOR|98=0|108=30|141=Y|10=233|
8=FIX.4.4|9=97|35=A|34=1|49=QUICKFIX_ACCEPTOR|52=20230413-08:48:32.149|56=QUICKFIX_INITIATOR2|98=0|108=30|141=Y|10=245|
8=FIX.4.4|9=79|35=0|34=2|49=QUICKFIX_ACCEPTOR|52=20230413-08:49:02.682|56=QUICKFIX_INITIATOR2|10=159|
8=FIX.4.4|9=79|35=0|34=2|49=QUICKFIX_INITIATOR2|52=20230413-08:49:02.692|56=QUICKFIX_ACCEPTOR|10=160|
8=FIX.4.4|9=79|35=0|34=3|49=QUICKFIX_ACCEPTOR|52=20230413-08:49:32.674|56=QUICKFIX_INITIATOR2|10=164|
8=FIX.4.4|9=79|35=0|34=3|49=QUICKFIX_INITIATOR2|52=20230413-08:49:33.090|56=QUICKFIX_ACCEPTOR|10=157|
8=FIX.4.4|9=79|35=0|34=4|49=QUICKFIX_ACCEPTOR|52=20230413-08:50:02.675|56=QUICKFIX_INITIATOR2|10=155|
8=FIX.4.4|9=79|35=0|34=4|49=QUICKFIX_INITIATOR2|52=20230413-08:50:03.087|56=QUICKFIX_ACCEPTOR|10=153|
8=FIX.4.4|9=79|35=0|34=5|49=QUICKFIX_ACCEPTOR|52=20230413-08:50:32.674|56=QUICKFIX_INITIATOR2|10=158|
8=FIX.4.4|9=79|35=0|34=5|49=QUICKFIX_INITIATOR2|52=20230413-08:50:33.089|56=QUICKFIX_ACCEPTOR|10=159|
8=FIX.4.4|9=79|35=0|34=6|49=QUICKFIX_ACCEPTOR|52=20230413-08:51:02.674|56=QUICKFIX_INITIATOR2|10=157|
8=FIX.4.4|9=79|35=0|34=6|49=QUICKFIX_INITIATOR2|52=20230413-08:51:03.092|56=QUICKFIX_ACCEPTOR|10=152|
8=FIX.4.4|9=79|35=0|34=7|49=QUICKFIX_ACCEPTOR|52=20230413-08:51:32.679|56=QUICKFIX_INITIATOR2|10=166|
8=FIX.4.4|9=79|35=0|34=7|49=QUICKFIX_INITIATOR2|52=20230413-08:51:33.092|56=QUICKFIX_ACCEPTOR|10=156|
8=FIX.4.4|9=79|35=0|34=8|49=QUICKFIX_ACCEPTOR|52=20230413-08:52:02.678|56=QUICKFIX_INITIATOR2|10=164|
8=FIX.4.4|9=79|35=0|34=8|49=QUICKFIX_INITIATOR2|52=20230413-08:52:03.089|56=QUICKFIX_ACCEPTOR|10=161|
8=FIX.4.4|9=79|35=0|34=9|49=QUICKFIX_ACCEPTOR|52=20230413-08:52:32.677|56=QUICKFIX_INITIATOR2|10=167|
8=FIX.4.4|9=79|35=0|34=9|49=QUICKFIX_INITIATOR2|52=20230413-08:52:33.092|56=QUICKFIX_ACCEPTOR|10=159|
8=FIX.4.4|9=80|35=0|34=10|49=QUICKFIX_ACCEPTOR|52=20230413-08:53:02.694|56=QUICKFIX_INITIATOR2|10=196|
8=FIX.4.4|9=80|35=0|34=10|49=QUICKFIX_INITIATOR2|52=20230413-08:53:03.093|56=QUICKFIX_ACCEPTOR|10=190|
8=FIX.4.4|9=80|35=0|34=11|49=QUICKFIX_INITIATOR2|52=20230413-08:53:33.092|56=QUICKFIX_ACCEPTOR|10=193|
8=FIX.4.4|9=80|35=0|34=11|49=QUICKFIX_ACCEPTOR|52=20230413-08:53:33.095|56=QUICKFIX_INITIATOR2|10=196|
8=FIX.4.4|9=80|35=0|34=12|49=QUICKFIX_INITIATOR2|52=20230413-08:54:03.092|56=QUICKFIX_ACCEPTOR|10=192|
8=FIX.4.4|9=80|35=0|34=12|49=QUICKFIX_ACCEPTOR|52=20230413-08:54:03.100|56=QUICKFIX_INITIATOR2|10=182|
8=FIX.4.4|9=80|35=0|34=13|49=QUICKFIX_INITIATOR2|52=20230413-08:54:33.092|56=QUICKFIX_ACCEPTOR|10=196|
8=FIX.4.4|9=80|35=0|34=13|49=QUICKFIX_ACCEPTOR|52=20230413-08:54:33.096|56=QUICKFIX_INITIATOR2|10=200|
8=FIX.4.4|9=80|35=0|34=14|49=QUICKFIX_INITIATOR2|52=20230413-08:55:03.093|56=QUICKFIX_ACCEPTOR|10=196|
8=FIX.4.4|9=80|35=0|34=14|49=QUICKFIX_ACCEPTOR|52=20230413-08:55:03.096|56=QUICKFIX_INITIATOR2|10=199|
8=FIX.4.4|9=80|35=0|34=15|49=QUICKFIX_INITIATOR2|52=20230413-08:55:33.092|56=QUICKFIX_ACCEPTOR|10=199|
8=FIX.4.4|9=80|35=0|34=15|49=QUICKFIX_ACCEPTOR|52=20230413-08:55:33.117|56=QUICKFIX_INITIATOR2|10=197|
8=FIX.4.4|9=80|35=0|34=16|49=QUICKFIX_INITIATOR2|52=20230413-08:56:03.093|56=QUICKFIX_ACCEPTOR|10=199|
8=FIX.4.4|9=80|35=0|34=16|49=QUICKFIX_ACCEPTOR|52=20230413-08:56:03.675|56=QUICKFIX_INITIATOR2|10=205|
8=FIX.4.4|9=97|35=A|34=1|49=QUICKFIX_INITIATOR2|52=20230413-09:30:27.195|56=QUICKFIX_ACCEPTOR|98=0|108=30|141=Y|10=242|
8=FIX.4.4|9=97|35=A|34=1|49=QUICKFIX_ACCEPTOR|52=20230413-09:30:27.282|56=QUICKFIX_INITIATOR2|98=0|108=30|141=Y|10=239|
8=FIX.4.4|9=79|35=0|34=2|49=QUICKFIX_ACCEPTOR|52=20230413-09:30:57.983|56=QUICKFIX_INITIATOR2|10=164|
8=FIX.4.4|9=79|35=0|34=2|49=QUICKFIX_INITIATOR2|52=20230413-09:30:57.993|56=QUICKFIX_ACCEPTOR|10=165|
8=FIX.4.4|9=79|35=0|34=3|49=QUICKFIX_ACCEPTOR|52=20230413-09:31:27.984|56=QUICKFIX_INITIATOR2|10=164|
8=FIX.4.4|9=79|35=0|34=3|49=QUICKFIX_INITIATOR2|52=20230413-09:31:28.002|56=QUICKFIX_ACCEPTOR|10=146|
8=FIX.4.4|9=79|35=0|34=4|49=QUICKFIX_ACCEPTOR|52=20230413-09:31:57.983|56=QUICKFIX_INITIATOR2|10=167|
8=FIX.4.4|9=79|35=0|34=4|49=QUICKFIX_INITIATOR2|52=20230413-09:31:58.140|56=QUICKFIX_ACCEPTOR|10=153|
8=FIX.4.4|9=79|35=0|34=5|49=QUICKFIX_ACCEPTOR|52=20230413-09:32:27.983|56=QUICKFIX_INITIATOR2|10=166|
8=FIX.4.4|9=79|35=0|34=5|49=QUICKFIX_INITIATOR2|52=20230413-09:32:28.142|56=QUICKFIX_ACCEPTOR|10=154|
8=FIX.4.4|9=79|35=0|34=6|49=QUICKFIX_ACCEPTOR|52=20230413-09:32:58.029|56=QUICKFIX_INITIATOR2|10=162|
8=FIX.4.4|9=79|35=0|34=6|49=QUICKFIX_INITIATOR2|52=20230413-09:32:58.144|56=QUICKFIX_ACCEPTOR|10=160|
