8=FIX.4.4|9=97|35=A|34=1|49=QUICKFIX_INITIATOR1|52=20230406-08:35:20.718|56=QUICKFIX_ACCEPTOR|98=0|108=30|141=Y|10=241|
8=FIX.4.4|9=97|35=A|34=1|49=QUICKFIX_ACCEPTOR|52=20230406-08:35:20.761|56=QUICKFIX_INITIATOR1|98=0|108=30|141=Y|10=239|
8=FIX.4.4|9=79|35=0|34=2|49=QUICKFIX_INITIATOR1|52=20230406-08:35:50.710|56=QUICKFIX_ACCEPTOR|10=150|
8=FIX.4.4|9=79|35=0|34=2|49=QUICKFIX_ACCEPTOR|52=20230406-08:35:51.232|56=QUICKFIX_INITIATOR1|10=150|
8=FIX.4.4|9=79|35=0|34=3|49=QUICKFIX_INITIATOR1|52=20230406-08:36:20.709|56=QUICKFIX_ACCEPTOR|10=157|
8=FIX.4.4|9=79|35=0|34=3|49=QUICKFIX_ACCEPTOR|52=20230406-08:36:21.232|56=QUICKFIX_INITIATOR1|10=149|
8=FIX.4.4|9=79|35=0|34=4|49=QUICKFIX_INITIATOR1|52=20230406-08:36:50.709|56=QUICKFIX_ACCEPTOR|10=161|
8=FIX.4.4|9=79|35=0|34=4|49=QUICKFIX_ACCEPTOR|52=20230406-08:36:51.228|56=QUICKFIX_INITIATOR1|10=158|
8=FIX.4.4|9=79|35=0|34=5|49=QUICKFIX_INITIATOR1|52=20230406-08:37:20.712|56=QUICKFIX_ACCEPTOR|10=154|
8=FIX.4.4|9=79|35=0|34=5|49=QUICKFIX_ACCEPTOR|52=20230406-08:37:21.232|56=QUICKFIX_INITIATOR1|10=152|
8=FIX.4.4|9=97|35=A|34=1|49=QUICKFIX_INITIATOR1|52=20230413-08:48:32.095|56=QUICKFIX_ACCEPTOR|98=0|108=30|141=Y|10=244|
8=FIX.4.4|9=97|35=A|34=1|49=QUICKFIX_ACCEPTOR|52=20230413-08:48:32.149|56=QUICKFIX_INITIATOR1|98=0|108=30|141=Y|10=244|
8=FIX.4.4|9=79|35=0|34=2|49=QUICKFIX_INITIATOR1|52=20230413-08:49:02.087|56=QUICKFIX_ACCEPTOR|10=157|
8=FIX.4.4|9=79|35=0|34=2|49=QUICKFIX_ACCEPTOR|52=20230413-08:49:02.673|56=QUICKFIX_INITIATOR1|10=158|
8=FIX.4.4|9=79|35=0|34=3|49=QUICKFIX_INITIATOR1|52=20230413-08:49:32.091|56=QUICKFIX_ACCEPTOR|10=156|
8=FIX.4.4|9=79|35=0|34=3|49=QUICKFIX_ACCEPTOR|52=20230413-08:49:32.672|56=QUICKFIX_INITIATOR1|10=161|
8=FIX.4.4|9=79|35=0|34=4|49=QUICKFIX_INITIATOR1|52=20230413-08:50:02.090|56=QUICKFIX_ACCEPTOR|10=145|
8=FIX.4.4|9=79|35=0|34=4|49=QUICKFIX_ACCEPTOR|52=20230413-08:50:02.671|56=QUICKFIX_INITIATOR1|10=150|
8=FIX.4.4|9=79|35=0|34=5|49=QUICKFIX_INITIATOR1|52=20230413-08:50:32.088|56=QUICKFIX_ACCEPTOR|10=156|
8=FIX.4.4|9=79|35=0|34=5|49=QUICKFIX_ACCEPTOR|52=20230413-08:50:32.673|56=QUICKFIX_INITIATOR1|10=156|
8=FIX.4.4|9=79|35=0|34=6|49=QUICKFIX_INITIATOR1|52=20230413-08:51:02.094|56=QUICKFIX_ACCEPTOR|10=152|
8=FIX.4.4|9=79|35=0|34=6|49=QUICKFIX_ACCEPTOR|52=20230413-08:51:02.672|56=QUICKFIX_INITIATOR1|10=154|
8=FIX.4.4|9=79|35=0|34=7|49=QUICKFIX_INITIATOR1|52=20230413-08:51:32.093|56=QUICKFIX_ACCEPTOR|10=155|
8=FIX.4.4|9=79|35=0|34=7|49=QUICKFIX_ACCEPTOR|52=20230413-08:51:32.677|56=QUICKFIX_INITIATOR1|10=163|
8=FIX.4.4|9=79|35=0|34=8|49=QUICKFIX_INITIATOR1|52=20230413-08:52:02.090|56=QUICKFIX_ACCEPTOR|10=151|
8=FIX.4.4|9=79|35=0|34=8|49=QUICKFIX_ACCEPTOR|52=20230413-08:52:02.674|56=QUICKFIX_INITIATOR1|10=159|
8=FIX.4.4|9=79|35=0|34=9|49=QUICKFIX_INITIATOR1|52=20230413-08:52:32.089|56=QUICKFIX_ACCEPTOR|10=163|
8=FIX.4.4|9=79|35=0|34=9|49=QUICKFIX_ACCEPTOR|52=20230413-08:52:32.674|56=QUICKFIX_INITIATOR1|10=163|
8=FIX.4.4|9=80|35=0|34=10|49=QUICKFIX_INITIATOR1|52=20230413-08:53:02.093|56=QUICKFIX_ACCEPTOR|10=188|
8=FIX.4.4|9=80|35=0|34=10|49=QUICKFIX_ACCEPTOR|52=20230413-08:53:02.677|56=QUICKFIX_INITIATOR1|10=196|
8=FIX.4.4|9=80|35=0|34=11|49=QUICKFIX_INITIATOR1|52=20230413-08:53:32.090|56=QUICKFIX_ACCEPTOR|10=189|
8=FIX.4.4|9=80|35=0|34=11|49=QUICKFIX_ACCEPTOR|52=20230413-08:53:32.672|56=QUICKFIX_INITIATOR1|10=195|
8=FIX.4.4|9=80|35=0|34=12|49=QUICKFIX_INITIATOR1|52=20230413-08:54:02.092|56=QUICKFIX_ACCEPTOR|10=190|
8=FIX.4.4|9=80|35=0|34=12|49=QUICKFIX_ACCEPTOR|52=20230413-08:54:02.674|56=QUICKFIX_INITIATOR1|10=196|
8=FIX.4.4|9=80|35=0|34=13|49=QUICKFIX_INITIATOR1|52=20230413-08:54:32.093|56=QUICKFIX_ACCEPTOR|10=195|
8=FIX.4.4|9=80|35=0|34=13|49=QUICKFIX_ACCEPTOR|52=20230413-08:54:32.674|56=QUICKFIX_INITIATOR1|10=200|
