8=FIX.4.4|9=97|35=A|34=1|49=QUICKFIX_INITIATOR2|52=20230406-08:35:20.725|56=QUICKFIX_ACCEPTOR|98=0|108=30|141=Y|10=240|
8=FIX.4.4|9=97|35=A|34=1|49=QUICKFIX_ACCEPTOR|52=20230406-08:35:20.761|56=QUICKFIX_INITIATOR2|98=0|108=30|141=Y|10=240|
8=FIX.4.4|9=79|35=0|34=2|49=QUICKFIX_ACCEPTOR|52=20230406-08:35:51.233|56=QUICKFIX_INITIATOR2|10=152|
8=FIX.4.4|9=79|35=0|34=2|49=QUICKFIX_INITIATOR2|52=20230406-08:35:51.236|56=QUICKFIX_ACCEPTOR|10=155|
8=FIX.4.4|9=79|35=0|34=3|49=QUICKFIX_ACCEPTOR|52=20230406-08:36:21.234|56=QUICKFIX_INITIATOR2|10=152|
8=FIX.4.4|9=79|35=0|34=3|49=QUICKFIX_INITIATOR2|52=20230406-08:36:21.236|56=QUICKFIX_ACCEPTOR|10=154|
8=FIX.4.4|9=79|35=0|34=4|49=QUICKFIX_ACCEPTOR|52=20230406-08:36:51.238|56=QUICKFIX_INITIATOR2|10=160|
8=FIX.4.4|9=79|35=0|34=4|49=QUICKFIX_INITIATOR2|52=20230406-08:36:51.242|56=QUICKFIX_ACCEPTOR|10=155|
8=FIX.4.4|9=79|35=0|34=5|49=QUICKFIX_ACCEPTOR|52=20230406-08:37:21.243|56=QUICKFIX_INITIATOR2|10=155|
8=FIX.4.4|9=79|35=0|34=5|49=QUICKFIX_INITIATOR2|52=20230406-08:37:21.246|56=QUICKFIX_ACCEPTOR|10=158|
