8=FIX.4.4|9=97|35=A|34=1|49=QUICKFIX_ACCEPTOR|52=20230406-08:35:20.761|56=QUICKFIX_INITIATOR1|98=0|108=30|141=Y|10=239|8=FIX.4.4|9=79|35=0|34=2|49=QUICKFIX_ACCEPTOR|52=20230406-08:35:51.232|56=QUICKFIX_INITIATOR1|10=150|8=FIX.4.4|9=79|35=0|34=3|49=QUICKFIX_ACCEPTOR|52=20230406-08:36:21.232|56=QUICKFIX_INITIATOR1|10=149|8=FIX.4.4|9=79|35=0|34=4|49=QUICKFIX_ACCEPTOR|52=20230406-08:36:51.228|56=QUICKFIX_INITIATOR1|10=158|8=FIX.4.4|9=79|35=0|34=5|49=QUICKFIX_ACCEPTOR|52=20230406-08:37:21.232|56=QUICKFIX_INITIATOR1|10=152|