8=FIX.4.4|9=97|35=A|34=1|49=QUICKFIX_ACCEPTOR|52=20230413-09:30:27.282|56=QUICKFIX_INITIATOR1|98=0|108=30|141=Y|10=238|8=FIX.4.4|9=133|35=8|34=2|49=QUICKFIX_ACCEPTOR|52=20230413-09:30:31.659|56=QUICKFIX_INITIATOR1|11=mockedClOrdID|17=mockedExecID|54=1|55=mockedSymbol|10=210|8=FIX.4.4|9=79|35=0|34=3|49=QUICKFIX_ACCEPTOR|52=20230413-09:31:01.979|56=QUICKFIX_INITIATOR1|10=159|8=FIX.4.4|9=79|35=0|34=4|49=QUICKFIX_ACCEPTOR|52=20230413-09:31:31.980|56=QUICKFIX_INITIATOR1|10=155|8=FIX.4.4|9=79|35=0|34=5|49=QUICKFIX_ACCEPTOR|52=20230413-09:32:01.983|56=QUICKFIX_INITIATOR1|10=157|8=FIX.4.4|9=79|35=0|34=6|49=QUICKFIX_ACCEPTOR|52=20230413-09:32:31.982|56=QUICKFIX_INITIATOR1|10=160|8=FIX.4.4|9=79|35=0|34=7|49=QUICKFIX_ACCEPTOR|52=20230413-09:33:01.983|56=QUICKFIX_INITIATOR1|10=160|