8=FIX.4.4|9=97|35=A|34=1|49=QUICKFIX_ACCEPTOR|52=20230413-08:48:32.149|56=QUICKFIX_INITIATOR1|98=0|108=30|141=Y|10=244|8=FIX.4.4|9=79|35=0|34=2|49=QUICKFIX_ACCEPTOR|52=20230413-08:49:02.673|56=QUICKFIX_INITIATOR1|10=158|8=FIX.4.4|9=79|35=0|34=3|49=QUICKFIX_ACCEPTOR|52=20230413-08:49:32.672|56=QUICKFIX_INITIATOR1|10=161|8=FIX.4.4|9=79|35=0|34=4|49=QUICKFIX_ACCEPTOR|52=20230413-08:50:02.671|56=QUICKFIX_INITIATOR1|10=150|8=FIX.4.4|9=79|35=0|34=5|49=QUICKFIX_ACCEPTOR|52=20230413-08:50:32.673|56=QUICKFIX_INITIATOR1|10=156|8=FIX.4.4|9=79|35=0|34=6|49=QUICKFIX_ACCEPTOR|52=20230413-08:51:02.672|56=QUICKFIX_INITIATOR1|10=154|8=FIX.4.4|9=79|35=0|34=7|49=QUICKFIX_ACCEPTOR|52=20230413-08:51:32.677|56=QUICKFIX_INITIATOR1|10=163|8=FIX.4.4|9=79|35=0|34=8|49=QUICKFIX_ACCEPTOR|52=20230413-08:52:02.674|56=QUICKFIX_INITIATOR1|10=159|8=FIX.4.4|9=79|35=0|34=9|49=QUICKFIX_ACCEPTOR|52=20230413-08:52:32.674|56=QUICKFIX_INITIATOR1|10=163|8=FIX.4.4|9=80|35=0|34=10|49=QUICKFIX_ACCEPTOR|52=20230413-08:53:02.677|56=QUICKFIX_INITIATOR1|10=196|8=FIX.4.4|9=80|35=0|34=11|49=QUICKFIX_ACCEPTOR|52=20230413-08:53:32.672|56=QUICKFIX_INITIATOR1|10=195|8=FIX.4.4|9=80|35=0|34=12|49=QUICKFIX_ACCEPTOR|52=20230413-08:54:02.674|56=QUICKFIX_INITIATOR1|10=196|8=FIX.4.4|9=80|35=0|34=13|49=QUICKFIX_ACCEPTOR|52=20230413-08:54:32.674|56=QUICKFIX_INITIATOR1|10=200|