8=FIX.4.4|9=97|35=A|34=1|49=QUICKFIX_ACCEPTOR|52=20230413-08:48:32.149|56=QUICKFIX_INITIATOR2|98=0|108=30|141=Y|10=245|8=FIX.4.4|9=79|35=0|34=2|49=QUICKFIX_ACCEPTOR|52=20230413-08:49:02.682|56=QUICKFIX_INITIATOR2|10=159|8=FIX.4.4|9=79|35=0|34=3|49=QUICKFIX_ACCEPTOR|52=20230413-08:49:32.674|56=QUICKFIX_INITIATOR2|10=164|8=FIX.4.4|9=79|35=0|34=4|49=QUICKFIX_ACCEPTOR|52=20230413-08:50:02.675|56=QUICKFIX_INITIATOR2|10=155|8=FIX.4.4|9=79|35=0|34=5|49=QUICKFIX_ACCEPTOR|52=20230413-08:50:32.674|56=QUICKFIX_INITIATOR2|10=158|8=FIX.4.4|9=79|35=0|34=6|49=QUICKFIX_ACCEPTOR|52=20230413-08:51:02.674|56=QUICKFIX_INITIATOR2|10=157|8=FIX.4.4|9=79|35=0|34=7|49=QUICKFIX_ACCEPTOR|52=20230413-08:51:32.679|56=QUICKFIX_INITIATOR2|10=166|8=FIX.4.4|9=79|35=0|34=8|49=QUICKFIX_ACCEPTOR|52=20230413-08:52:02.678|56=QUICKFIX_INITIATOR2|10=164|8=FIX.4.4|9=79|35=0|34=9|49=QUICKFIX_ACCEPTOR|52=20230413-08:52:32.677|56=QUICKFIX_INITIATOR2|10=167|8=FIX.4.4|9=80|35=0|34=10|49=QUICKFIX_ACCEPTOR|52=20230413-08:53:02.694|56=QUICKFIX_INITIATOR2|10=196|8=FIX.4.4|9=80|35=0|34=11|49=QUICKFIX_ACCEPTOR|52=20230413-08:53:33.095|56=QUICKFIX_INITIATOR2|10=196|8=FIX.4.4|9=80|35=0|34=12|49=QUICKFIX_ACCEPTOR|52=20230413-08:54:03.100|56=QUICKFIX_INITIATOR2|10=182|8=FIX.4.4|9=80|35=0|34=13|49=QUICKFIX_ACCEPTOR|52=20230413-08:54:33.096|56=QUICKFIX_INITIATOR2|10=200|