8=FIX.4.4|9=97|35=A|34=1|49=QUICKFIX_ACCEPTOR|52=20230413-09:30:27.282|56=QUICKFIX_INITIATOR2|98=0|108=30|141=Y|10=239|8=FIX.4.4|9=79|35=0|34=2|49=QUICKFIX_ACCEPTOR|52=20230413-09:30:57.983|56=QUICKFIX_INITIATOR2|10=164|8=FIX.4.4|9=79|35=0|34=3|49=QUICKFIX_ACCEPTOR|52=20230413-09:31:27.984|56=QUICKFIX_INITIATOR2|10=164|8=FIX.4.4|9=79|35=0|34=4|49=QUICKFIX_ACCEPTOR|52=20230413-09:31:57.983|56=QUICKFIX_INITIATOR2|10=167|8=FIX.4.4|9=79|35=0|34=5|49=QUICKFIX_ACCEPTOR|52=20230413-09:32:27.983|56=QUICKFIX_INITIATOR2|10=166|8=FIX.4.4|9=79|35=0|34=6|49=QUICKFIX_ACCEPTOR|52=20230413-09:32:58.029|56=QUICKFIX_INITIATOR2|10=162|